:400000000040002011000000210D0000210D000080B500AF00F08EFE80B500AF2F4B12221A6003F017FC2E4B180003F021FE012003F020FC0C2003F0D7F92A4B2A4A1A605C
:400040002A4B8022D2051A60294B294A126802210A431A60274B284A1A60284B00221A60274B274A126808218A431A60FA23DB00180003F007FA234B180003F03BFB224B73
:40008000EE22D2011A60214B214A1A60214BFE2212021A601D4B204A1A60204BFE2212021A601A4B1E4A1A601E4B802212061A601D4B00221A601D4B42221A601C4B40221C
:4000C0001A601C4B41221A60084B8022D2051A60024B00221A60C046BD4680BD30001040001BB70004010B40060000800C020B4078002E407C002E406A2D000064F02E4023
:400100006CF02E40DC050000080301400000014042FF00800003014040FF00800403014041FF008008010B4000010B402C010140140101401001014080B582B000AF72B6C7
:400140004B4B00221A60FB1D00221A7022E0FB1D1A7813005B009B185B00464A9B183B603B681A78597809020A43997809040A43DB781B06134318003B681A795B791B02B1
:4001800013439BB2190000F029FDFB1D1A78FB1D01321A70FB1D1B78012BD8D9364A374B1100180000F02AFD354B802252001A80344B01221A70344B8022D2021A60334BFD
:4001C000C02292041A60324BCC2292051A60314B00221A60304B00221A60304B992212041A602F4B802212061A602E4B802292051A602D4B992212041A602C4BD02212067E
:400200001A602B4A2A4B1B78DBB23C218B43DBB214210B43DBB21370264A264B1B78DBB216210B43DBB21370234BFE221A60234B8822D2031A60224B802212021A60214BE1
:400240003E221A60204BC0221A60204B902292031A601F4B01221A601E4B01221A60FFF7DBFE00F00DFDC046BD4602B080BDC0466CF02E40FC6301002064010008640100C1
:4002800000600F4002600F4014000B400002024000030240000002400800044020500F4024500F4028500F4030500F4038500F4001700F4000700F40000204400802044066
:4002C0000C020440180204400003044008030440000404401804044010B5064C2378002B07D1054B002B02D0044800E000BF0123237010BD0811002000000000F86301000A
:40030000084B10B5002B03D00749084800E000BF07480368002B00D110BD064B002BFBD09847F9E7000000000C110020F8630100A80B00200000000080B500AF00F034F873
:4003400004F010FA00F0FAFA134B1B78012B0CD100F038FA114B1B78012B06D106F004FA0300052B01D100F053F800F0E9FB0C4B1B78002BE4D00A4B00221A70094B1B78D4
:40038000002B04D0074B00221A7001F09FFA002002F0C8F8D4E7C046281100202611002029110020AC0B002080B500AF62B6154B180002F023F802F019FC02F057FDFF2055
:4003C00002F0C8FCFF2002F0D5FCFF2002F0F8FD062002F099FE062002F0AEFE062002F07BFE094B180002F0D7FE00F0CBFD01F06DFA064B1900082003F08EF8C046BD4604
:4004000080BDC0467D040000C90B00003D0A000090B583B000AF002000F016FE01E003F07DF900F07FFE031EF9D101F0A1FBBC1D002001F0EBFC030023800E4B1B88BA1D19
:4004400012889A4212D0BB1D1B880B4A934203D0BB1D1B88642B05D8BB1D1B88DBB2180000F050F9034BBA1D12881A80C046BD4603B090BD24110020FFFF000080B584B04E
:4004800000AF786039607B68272B00D114E10CD8022B00D112E102D8012B14D011E1052B00D104E1262B12D00BE1422B2BD004D8282B15D0412B1AD003E14C2B6DD0712B65
:4004C00000D1F0E0FDE0814B01221A70F9E0804B1B78042B00D0F3E07C4B01221A70EFE07A4B01221A707B4B01221A70E9E07A4A3B681000190002231A0004F0EAF8774BA4
:4005000001221A70DDE0754B00221A70744B00221A70744B00221A70714B1A78724B1A70714B00225A70714B0F221A816F4B6E4A1A606E4B02229A80674A6C48402300217E
:4005400011F06EFB674B1A78694B1A70684B00225A70684B14221A81664B654A1A60654B02229A805C4A63484023002111F058FB614B00221A70604B00225A705E4B0022C1
:400580009A705D4B0022DA7000F03CF95B4B01221A70504B01221A7093E03B68FB60FB689B890F2B26D1FB685B681B78012B03D14B4B01221A7007E0FB685B681B78002B6D
:4005C00002D1474B00221A70454B1A78464B1A70454B00225A70454B0F221A81434B424A1A60424B02229A803B4A40484023002111F016FBFB689B89142B2BD1FB685B68EB
:400600001B78012B03D1374B01221A7007E0FB685B681B78002B02D1324B00221A70314B1A78334B1A70324B00225A70314B14221A81304B2E4A1A602E4B02229A80264AD1
:400640002C484023002111F0EBFA2B4B0421180000F086F8FB689B89132B15D1FB685B681A78254B1A70FB685B685A78224B5A70FB685B689A78204B9A70FB685B68DA78CA
:400680001D4BDA7000F0BEF8134B1A785B781B021A4300231204120C1B0C1B041343180010F096F80DE0154B00221A7009E03B681A78134B1A7004E0C04602E0C04600E05B
:4006C000C046C046BD4604B080BDC0462911002096230020BC0B0020AC220020281100202611002027110020A8220020BC220020A4220020CC220020C8220020B00B002023
:400700002E11002080B586B000AF0200FB1D1A70114B1B78002B1BD10C23FB180E221A810C23FB18FA1D1A600C23FB1801229A800C23F918094B1A785B781B021A430023A1
:400740001204120C1B0C1B04134318000FF0F4FFC046BD4606B080BD2E110020AC22002080B586B000AF78600A00FB1C1A70134B1B78002B1DD10C23FB1813221A810C236E
:40078000FB187A681A60FB1C1B789AB20C23FB189A800C23F9180A4B1A785B781B021A4300231204120C1B0C1B04134318000FF0C3FFC046BD4606B080BDC0462E110020D7
:4007C000AC22002080B500AF0A4B1B78002B0DD0094B1B78002B09D0074B00221A70074B1B78074A110018000CF082FEC046BD4680BDC04628110020B00B0020AC22002005
:40080000B40B002080B582B000AFFB1D464AD2781A70454B1B781A00FB1D1B785343FF21180003F02FFE03001A00BB1D1A703E4B5B781A00FB1D1B785343FF21180003F010
:4008400021FE03001A007B1D1A70374B9B781A00FB1D1B785343FF21180003F013FE03001A003B1D1A70304BDB78032B0CD82F4B01221A70002002F047FC002002F05CFC29
:40088000002002F029FC3CE0BB1D1B78032B14D87B1D1B78032B10D83B1D1B78032B0CD8224B01221A70002002F02EFC002002F043FC002002F010FC23E01C4B00221A7047
:4008C0001B4B02221A70062002F01EFC062002F033FC062002F000FCBB1D1B78DB43DBB2180002F037FA7B1D1B78DB43DBB2180002F040FA3B1D1B78DB43DBB2180002F04C
:400900005FFB0C4B13221A810A4B074A1A60094B04229A80084A07480023002111F080F9C046BD4602B080BDC8220020BC0B00202B110020B0220020AC22002080B582B097
:4009400000AFFB1D00221A70374B1A78374B1B789A4209D0FB1D01221A70344B1B78032B02D1334B01221A60304B1A782E4B1A702D4B1B78032B1AD0042B3AD0022B00D0CA
:400980004AE0FB1D1B78002B43D0FB1D00221A70062002F0B9FB002002F0DCF9254B01221A70254B02221A7000F0A8F831E0204B1B685A1E1E4B1A601D4B1B68002B2AD177
:4009C00002F0BEF90300FF2B09D1002002F0C2F9062002F099FB164B04221A601BE0FF2002F0B8F9002002F08FFB114B14221A6011E0FF2002F0AEF9002002F085FB00200D
:400A000002F09AFB002002F067FB082002F014FE02E0C04600E0C046FB1D00221A70C046BD4602B080BDC046BD0B002096230020C00B00202D1100202C11002080B500AFB4
:400A400003F0B6F80200042313404BD0042003F0BDF8264B1B78002B14D0254B1B78002B09D1FF2002F076F9002002F04DFB1F4B00221A701DE01E4B1B78013BDAB21C4B3F
:400A80001A7016E01B4B1B78002B0CD11A4B01221A70002002F038FB002002F04DFB002002F01AFB05E0134B1B78013BDAB2114B1A7002F029FF012002F0FCFF082003F016
:400AC000BDF8642002F016FE80231B021900002003F026F8642002F00DFE012002F0BAFF02F0E8FEC046BD4680BDC0462D1100202C1100202B110020BC0B002080B500AF5A
:400B000002F002FF0121002002F040FF0121002002F06AFF0321082002F024FD082002F075FD80231B021900002002F0F9FF012002F090FF02F0BEFEC046BD4680BDC04648
:400B400090B583B000AF00F043FEFC1D032003F001FE0300237072B6BC1D05F005FE03002370FB1D1B78032B1FD1BB1D1B78042B03D0BB1D1B78062B1DD1124B1B78002BEF
:400B80000AD002F047F902F07BFA02F0E1FD02F05DF902F091FA0EE0032002F025FC02F0BDFD0C2002F020FC05E0BB1D1B78022B01D002F0B3FD62B600F028FEC046BD46FC
:400BC00003B090BDBC0B002080B500AF02F042FB02F0CAFAC046BD4680BDC04680B582B000AF786039603A687B680021180003F079FDC046BD4602B080BDC04680B586B0E2
:400C000000AF7860396000233B6100237B612FE07B699B007A68D3181B68BB600F23FB18BA681A70BB68FF229343BB6018E03B695B003A68D3181B781A00BB68D31819005F
:400C40003B695B003A68D3185B780B703B6901333B610F23FB181A780F23FB18013A1A700F23FB181B78002BE1D17B6901337B617B69052BCCD9C046BD4606B080BDC046E1
:400C800080B500AF074B03221A60074B03221A60064B00221A60012000F00AF8C046BD4680BDC0463000304030003140000E3F4080B584B000AF0200FB1D1A70154B1B68B5
:400CC000FB60FB1D1B78002B05D0FB68802212061343FB6003E0FB685B005B08FB600D4BFA681A600C4B1B68FB60FB1D1B78002B05D0FB68982292051343FB6003E0FB6802
:400D0000064A1340FB60044BFA681A60C046BD4604B080BD80033A4008010B40FFFFFFD980B500AF03F09AFC03001B680C2B00D1FEE7FEE780B586B000AF224B7B61224BD4
:400D40003B61204B7B6135E03B691B68FB603B695B68BB603B699B683B6000237B600CE0FB681A68BB681A60BB680433BB60FB680433FB607B6804337B607A683B689A4209
:400D8000EED13B69DB683B6000237B6008E0BB6800221A60BB680433BB607B6804337B607A683B689A42F2D13B6910333B617B69013B7B617B69002BC6D103F055FCFFF760
:400DC000BBFAFEE701000000286A010080B582B000AF154B144A126801218A431A6000237B600FE07B68032B04D8104B7A689200D35800E00E4B0F4A796889008B507B6880
:400E000001337B607B682F2BECD9FFF795F90A4B00221A60044B044A126801210A431A60C046BD4602B080BD0000104000000000210D000000000020C000002080B582B04F
:400E400000AF00237B6007E07B680021180000F04DFC7B6801337B607B68042BF4D900F009F8002000F0A8FB00F078F9C046BD4602B080BD80B582B000AF244B1B68DAB227
:400E8000234B1A70224B1B787B607B680F2293437B60204B1B78DBB21A000F2313407A6813437B607B68F02293437B60194B1B78DBB21A00F02313407A6813437B60134B42
:400EC0007A681A60144B154A1A60154B154A1A60154B1B687B607B680F2293437B607B68062213437B60104B7A681A60102002F0A3FB0E4B1900102002F00EFB03211020FE
:400F000002F030FBC046BD4602B080BD00FF2840D822002062F1FF0F0800284000020001040028400008A001000402400D20000080B582B000AF02F0FDF902F0ADF9002108
:400F4000002002F0BBF90021002002F005FAFF2002F08AF9402002F0D5F9084B1B687B607B68074A13437B60044B7A681A60102002F04CFBC046BD4602B080BD0400284037
:400F80000010088080B500AF0C4B1B78002B04D1FFF754FF094B01221A70FFF7C9FF01F0A1F8074B01221A70064B064A12688021C9030A431A60C046BD4680BD3E11002036
:400FC000301100200400284080B584B000AF0200FB1D1A70FB1D1A78FB1D01321A70FB1D1B78052B0CD0FB1D1A78094B1100180000F0FCFA0300FB60FB68002BEAD000E09F
:40100000C046FB1D1B781800BD4604B080BDC046C40B002080B582B000AF7860084B00221A707B68DAB2074B1A70054B81221A707B68180000F09AF9C046BD4602B080BDD3
:40104000311100203211002080B586B000AF78602E4A7B68D3181A782D4B1A702D4A7B68D3181B787B617B69002B01D101237B61264A7B68D3181B781A007B69D318013B54
:40108000FB6000233B610BE0234A3B69D3181978224A3B69D3180A1C1A703B6901333B613B69002BF0D000233B611AE0184B1B78DBB21A003B699A420AD83A69FB689A4256
:4010C00006D83969144B0122180000F0B1FA05E03969114B0022180000F0AAFA3B6901333B613B69042BE1D9094B1B78DBB2042B08D80B4B41221A70054B1B78DBB218003B
:4011000000F034F9C046BD4606B080BD88650100321100208C650100C40B0020E02200203111002080B500AF044B1B78DBB21A00012313401800BD4680BDC046311100203C
:4011400080B582B000AF7860034B7A685200D35A1800BD4602B080BD3411002080B582B000AF00237B6006E07B68180000F070F87B6801337B607B68042BF5D9C046BD463B
:4011800002B080BD90B587B000AF78602C4A7B68D3181B787B612B4A7B68D3181B781322BA18191C0B1CDB185B181370254A7B68D3181A781223FB1892001A701123FC18ED
:4011C00002F05FFD030023701F4B7A699200D3581B68FB601223FB181B780F229A401300DA43FB681340FB601223FB181B7804229A401300FA681343FB60144B7A69920027
:40120000D358124A796989008A581268132179180978072088400100C9430A401A600A4B7A699200D358FA681A601123FB181B78180002F02AFDC046BD4607B090BDC0466B
:401240000865010024650100346501005065010090B589B000AF78603E4A7B68D3181B787B613D4A7B68D3181A781323FB1892001A70394A7B68D3181B781222BA18191CF1
:401280000B1CDB185B1813700023FB61334A7B68D3181B78BB61324B7A699200D358304A796989008A5812681321791809780F2088400100C9430A401A60BB69022B01D116
:4012C0000023BB61BB69012B01D00623FB611123FC1802F0D6FC03002370224B7A699200D3581B68FB601223FB181B7807229A401300DA43FB681340FB601223FB181B7882
:40130000FA699A401300FA681343FB60154B7A699200D358FA681A601123FB181B78180002F0B3FC104B7A699200D3580E4A796989008A58126808487968411809780800AE
:4013400001218140C9430A401A60C046BD4609B090BDC0460865010024650100FC22002034650100506501006C65010090B589B000AF78601B23FB184E497A688A18127852
:401380001A701B23FB181A784B4B9200D358FB617A684A4B1100180000F028F903007B61FB69474A934209D8FA697B699A401300FB61FB69FF2212041343FB6101F0BAFF4F
:4013C00001F06AFF3F4A7B68D3181B789BB2013B9BB20021180001F071FF3B4A7B68D3181B789BB2013B9BB20021180001F0B4FFFF2001F039FF402001F084FF102002F062
:401400001BF9324B802252021A60C0462F4B1B681B0C1B04FAD12E4B01221A60102002F021F9102002F0F2F8102002F005F9294B1B683B613B69284A13403B61274A7B682D
:40144000D3181B781900264A7B68D3181B781B040B433A6913433B611E4B3A691A60214B1B683B613B69204A13403B613B691F4A13433B61102002F0C9F87B681800FFF721
:4014800081FE0F23FC1802F0FCFB03002370154B3A691A60002002F0EBFB0C4BFA691A600F23FB181B78180002F0EFFBC046BD4609B090BD2C650100DC0B0020DC220020AD
:4014C000FFFFFEFF04230020E42200200C002840140028400800284000FF80FFEC220020F422002004002840FF1FDFFF2000200080B586B000AF7860254B1B6899B2254BFA
:401500007A685200D152244A7B68D3181B787B61224B7A699200D358214A934214D87A68204B1100180000F061F803003B61194B7A685200D35A1A003B691A41130099B2D6
:40154000144B7A685200D1527B681800FFF780FE102002F071F8144B1B68FB60FB68134A1340FB60FB68A02212021343FB600E4BFA681A600E4B0E4A12680E490A401A60AB
:40158000102002F043F8C046BD4606B080BDC0460C002840341100202C650100DC0B0020FFFFFEFFDC22002004002840FF1FDFFF0800284000FF80FF80B584B000AF7860FB
:4015C0007B68032213407B60074B1B68FB607B685B02FA681343FB60034BFA681A60C046BD4604B080BDC0460400284080B584B000AF786039603B68DB08FB603B68072266
:40160000134001229A400B23FB181A707A68FB68D3181B780B22BA1812781340DBB2002B01D0012300E000231800BD4604B080BD80B586B000AFF860B9607A60BB68DB08C9
:401640007B61BB680722134001229A401323FB181A707B68002B0DD0FA687B69D318F9687A698A1811781322BA1812780A43D2B21A700EE0FA687B69D318F9687A698A18A3
:401680001278132179180978C943C9B20A40D2B21A70C046BD4606B080BDC04680B584B000AF78600023BB600023FB6015E07B681800FFF7AFFCC046FFF734FD0300012BE0
:4016C000FAD07B681800FFF73BFD03001A00BB689B18BB60FB680133FB60FB68002BE6D0BB689BB21800BD4604B080BD80B582B000AF786039603B68D9B2044A7B68D31866
:401700000A1C1A70C046BD4602B080BDFC22002080B588B000AF786039600023FB613AE000237B61204AFB69D3181B783B611F4AFB69D3181B78BB61BA693B69D318FB6042
:401740000FE03A68BB69D3181B781A007B699A4204D93A68BB69D3181B787B61BB690133BB61BA69FB689A42EBD3104AFB69D3181B78BB6108E03A68BB69D3187A69D2B273
:401780001A70BB690133BB61BA69FB689A42F2D3FB690133FB61FA697B689A42C0D3C046BD4608B080BDC0468C6501008865010080B500AF044B1B68002B02DA034B012249
:4017C0001A70C046BD4680BD040028404011002080B500AFFFF7ECFF102001F02DFF094B084A126808490A401A60064B054A1268520052081A6001F09DFD01F04DFDC046E9
:40180000BD4680BD04002840FFEFF7FF80B500AFFF2001F077FDFF2001F026FD044B1B78002B01D0FFF784FBC046BD4680BDC0464011002080B582B000AF7860124B7A6840
:401840005200D15A114B7A685200D152104A7B68D31800221A700F4A7B68D31800221A70094B7A685200D15A0B4B7A685200D152054B7A685200D15A084B7A685200D152D8
:40188000C046BD4602B080BD341100204411002050110020581100201C2300203023002080B582B000AF78607B681800FFF7B2FBC046FFF737FC031EFBD17B681800FFF7E1
:4018C000B9FFC046BD4602B080BDC04680B582B000AF00237B6006E07B681800FFF7E0FF7B6801337B607B68042BF5D9C046BD4602B080BD90B587B000AF78600F23FB1856
:4019000086497A688A1812781A700F23FB181A780E23FB1882498A5C1A701023FB18814A796849008A5A1A807F4B1B78002B26D01223FB181022BA1812881A807B4B7A688B
:401940005200D15A7A4B7A685200D25A1023FC181023FB181B88180000F034FB03002380724B7A685200D15A714B7A685200D1526E4B7A685200122179180988D1527B6841
:40198000D9B2684A6B4B180002F042FA6A4B7A685200D35A1022BA1812889A4212D3674A7B68D31800221A70634B7A685200D25A1223FB181021791809888A1A1A80012343
:4019C0007B610CE05C4B7A685200D15A1223FB181022BA1812888A1A1A8000237B617B69002B2AD10F23FB181B78554AD35C9BB21222BA1812889A421FD9504A7B68D3181D
:401A00001A7850497B68CB181B789A4209D37B681800FFF70FFF494A7B68D31800221A7051E0464A7B68D3181B780133D9B2434A7B68D3180A1C1A7045E00E23FB181B7876
:401A40009BB21222BA1812889A420DD90F23FB181B783B4AD35C9BB21222BA1812889A4231D27B69002B2ED1334B7A685200D35A1B02BB60344A7B68D3181B781A00BB681E
:401A80001343BB601023FB181B88BA68D318BB60294B7A685200D35A1A00BB689B1ABB60BB681B0A99B2244B7A685200D152BB68D9B2254A7B68D3180A1C1A701F4A7B6882
:401AC000D31800221A700E23FB181B789BB21222BA1812889A4217D97B69002B14D01223FB181B88FF2B05D9184A7B68D318FF221A700EE01223FB181B88D9B2134A7B685A
:401B0000D3180A1C1A7004E0104A7B68D31800221A70C046BD4607B090BDC0462C6501000C23002034110020E50B00201C2300203023002078230020441100201023002094
:401B400018230020E00B0020501100205811002080B582B000AF78607B68180000F044FB7B681800FFF7C6FEC046BD4602B080BD80B582B000AF00237B6011E07A680C4BF2
:401B800011001800FFF732FD03003B603B68002B03D07B681800FFF7DBFF7B6801337B607B68042BEAD9C046BD4602B080BDC046C40B002090B585B000AF040008001100D3
:401BC000FB1D221C1A70BB1D021C1A707B1D0A1C1A700E23FB18FF221A700D23FB1800221A70FB1D1A78204BD318BB600F23FB1800221A702AE00F23FB181B78BA68D31864
:401C00001B787A1D12789A4219D20F23FB181B78BA68D3181B780D22BA1812789A420ED20E23FB180F22BA1812781A700F23FB181B78BA68D2180D23FB1812781A700F23A2
:401C4000FB181A780F23FB1801321A700F23FA18BB1D12781B789A42CDD30E23FB181B781800BD4605B090BD58110020B0B588B000AF05000C0010001900FB1D2A1C1A701D
:401C8000BB1D221C1A707B1D021C1A70BB1C0A1C1A80BB1D1A785B4BD318BB611F23FB1800221A70FB1D1B78002B05D01F23FB18FA1D1278013A1A701723FB18FA1D127841
:401CC00001321A70FB1D1B78BA69D3181A784E4B5A70FB1D1B78002B0BD14B4B00221A701723FB181B78BA69D3181A78464B9A7022E0FB1D1A787B1D1B78013B9A420BD19F
:401D00001F23FB181B78BA69D3181A783E4B1A703D4B00229A700FE01F23FB181B78BA69D3181A78384B1A701723FB181B78BA69D3181A78344B9A70334B1B783022BA1892
:401D400012789A4209D2304B1A783023FB181B78D31ADAB22C4B1A7002E02B4B00221A70294B5A783023FB181B78D31ADAB2264B5A70254B9B783022BA1812789A4209D2C3
:401D8000214B9A783023FB181B78D31ADAB21E4B9A7002E01C4B00229A701B4B9B781A00194B1B78D31A3B61174B1B781A00164B5B78D318144A92789B18FB603B691B02D3
:401DC000F968180002F05EFB03001A00FB1D1B781B02D318FB60BB1C00229B5E1A00FB685343FB60FB68FE22D201944663441A0C0B23FB181A700B23FB181B781800BD46DD
:401E000008B0B0BD5811002068110020B0B588B002AF78601523FB1866497A688A1812781A701423FB1864497A688A1812781A701323FB1800221A701223FB1805221A7026
:401E40005E4A7B68D3181A781123FC181223FB1819781323FB181B781800FFF7ABFE030023701123FB181B78FF2B00D18AE0C8235D01534A7B68D3181B781222BA181478F8
:401E80001322BA1811781122BA18107800932B002200FFF7EBFE03001A001623FB181A801423FB181B781F22134000D17BE01023FB181522BA18127801321A701523FB18C5
:401EC0001B783C4AD35C002B25D11023FB181B781622BA181288D1B2364AD1541423FB181B780122134005D11423FB181B780222134009D01023FB181B7801331622BA1867
:401F00001288D1B22B4AD1541523FB181B78294A0121D15447E01423FB181B780222134041D00F23FB181622BA1812881A701023FB181B781F4AD35C99B21023FB181B78BE
:401F400001331C4AD35C9AB21623FC181623FB181B88180000F036F8030023801023FB181B7801331022BA1812781249895C114AD1541023FB181B780E4A0F217918097866
:401F8000D15410E01623FB18012252421A801423FB181B781F22134005D01523FB181B78044A0021D1541623FB181B881800BD4606B0B0BDF00B0020EC0B00202C230020E9
:401FC0000C23002090B585B000AF040008001100BB1D221C1A803B1D021C1A80BB1C0A1C1A80BB1D1A883B1D1B88D218BB1C1B88D3180321180002F0BBF90300FB60FB688E
:402000009BB21800BD4605B090BDC04680B500AF102001F011FB2D4B01221A602C4B1B78DBB21800FFF764FA2A4B1B78DBB25BB2002B08DA274B1B78DBB201229343DAB241
:40204000244B1A703CE0224B1B78DBB21800FEF7BBFF03001A001E4B1A701D4B1B78DBB2042B06D81A4B1B78DBB21800FFF77EF926E0184B1B78DBB201229343DAB2154BDA
:402080001A70144B1B78DBB21A004023134017D0114B00221A700FE00F4B1B781A000E4B1B7819000D4B595C0D4B99540A4B1B780133DAB2084B1A70074B1B78002BEBD0BB
:4020C000102001F0A3FAC046BD4680BD1400284032110020311100206B110020E0220020C40B002080B582B000AF364B05221A70344B01225A70334B05229A70314B0C22E1
:40210000DA80304B304A9A802E4B304A9A6000F0E5F800233B6007E02D4B3A6892002D49D1503B6801333B60264B5B781A003B689A42F1D800237B600CE0274A7B68D31853
:4021400004221A70254A7B68D31801221A707B6801337B607B68042BEFD900F0CDF8204A184B1100180001F0B3FD1E4B19000120FFF7CEFA134B180001F0BBFD184A114B6F
:402180001100180001F0A4FD164B19000120FFF7BFFA0C4B180001F0CDFD0A4B180000F0C5F800237B6006E07B68180000F01CF87B6801337B607B68042BF5D9C046BD4618
:4021C00002B080BD7823002098090000A4650100DC0B00200000FF0FE4220020042300209A0D0000EC22002090B587B002AF7860344A7B68D3181B78FB607B68D9B2FB6823
:40220000DAB2314C3148324B0093230001F07EFE0B23FB182C49FA688A1812781A702C4AFB68D31819782B4AFB68D3180A1C1A700B23FB181B78DB2B0AD80B23FB181B7856
:40224000DB08D9B2244AFB68D3180A1C1A7034E00B23FB181B78EC2B0AD80B23FB181B781B09D9B21C4AFB68D3180A1C1A7024E00B23FB181B78F42B0AD80B23FB181B780F
:402280005B09D9B2144AFB68D3180A1C1A7014E00B23FB181B78F92B0AD80B23FB181B789B09D9B20C4AFB68D3180A1C1A7004E0094AFB68D31800221A70C046BD4605B0BF
:4022C00090BDC0462C6501002C230020782300200C230020182300202823002080B500AF044B044A126840218A431A60C046BD4680BDC0460400284080B582B000AF094BF5
:402300001B687B607B68084A13407B607B688022920013437B60034B7A681A60C046BD4602B080BD08002840FFFCFFFC80B584B000AF78600023FB6019E01C4AFB68D31871
:402340001B785B08D9B21A4AFB68D3180A1C1A70164AFB68D3181B7801335B08D9B2134AFB68D3180A1C1A70FB680133FB607B681B781A00FB689A42DFD8102001F05CF9CE
:402380000C4B1B68BB60BB680B4A1340BB60BB680A4A1343BB60074BBA681A60102001F035F9C046BD4604B080BDC046EC220020F422002008002840FFFCFFFC0002000150
:4023C00080B500AF064B00221A70064B00221A70054B00221A7000F009F8C046BD4680BD9F230020982300209E23002080B500AF00F0F6FBC046BD4680BDC046B0B594B074
:4024000004AF78603E23FB1800221A802823FA183D4B1000190014231A0002F05AF93B4B1B78002B04D1FFF7CBFF384B01221A707B68002B5CD0364B7A681A603E23FB18A9
:402440001B88002B29D11023FB181C22BA185A601023FB182022BA181A601023FB1800221A812023FB181B221A802023FB181B225A802023FB1804221A711C23FB18002298
:402480001A703E23FC180E23FA181023FB181100180002F043FA030023803E23FB181B88002B29D13E23FC182823FD18AE231A0118491948002302930023019305230093AD
:4024C0002B0002F081F9030023803E23FB181B88002B11D1114B01221A703E23FC18104B0F22152118000FF083FB0300238003E03E23FB1801221A803E23FB181B881800BD
:40250000BD4610B0B0BDC046006601006C1100208C230020C800002061280000962300205C66010090B585B000AF0200FB1D1A70FB1D1B78022B04D90E23FB1801221A8002
:402540004CE02A4B1B78042B43D1294B1B78DBB21A00042313403CD1FB1D1B78002B0DD1244B1E221A82234B5B68902252001A80204B5B68A02252005A8010E0FB1D1B782A
:40258000012B0CD11B4B96221A821A4B5B68C822D2001A80174B5B68FA2212015A80164BFA1D12781A700E23FC18124B18000CF01BFF030023800E23FB181B88002B0DD1BA
:4025C0000B4B1B78DBB204221343DAB2084B1A7004E00E23FB180422FF321A800E23FB181B881800BD4605B090BDC046962300209F2300204C0C00209E23002080B584B0E0
:4026000000AF78600A00FB1C1A700023BB60BB68002B20D07B689A79BB681A700F23FB1800221A7012E00F23FB181B780133BA68D3180F22BA18127879688A5C1A700F233D
:40264000FB181A780F23FB1801321A700F23FB181B78052BE7D9C046BD4604B080BDC04680B582B000AF78607B681B789AB27B6801331B789BB21B029BB213439BB218001F
:40268000BD4602B080BDC04690B585B000AF78600F23FB1800221A707B689B890B22934232D17B68181D7A680F23FC18402300210FF0B6FA030023700F23FB181B78002B18
:4026C0001AD17B685B681800FFF7CAFF03001A00022313409BB2002B07D00F4B1B687968822252001000984706E00B4B1B6879680622FF3210009847084B1B78DBB201226D
:402700009343DAB2054B1A700F23FB181B781800BD4605B090BDC0468C2300209F23002090B585B000AF78600F23FC187B681800FFF7AAFF03002370154B1B78DBB21A00A0
:40274000012313401FD10F23FB181B78002B16D00823FB1812229A707B689A890823FB181A800823FB180F22BA181278DA700823FA187B68110018680DF0A0FF03E07B6887
:4027800018680EF025F8C046BD4605B090BDC0469F23002080B582B000AF7860C046BD4602B080BD80B500AF044B00225A70034B00221A70C046BD4680BDC0469C23002061
:4027C00080B582B000AF7860C046BD4602B080BD80B500AFC046BD4680BDC04680B584B000AF78600E23FB1800221A707B689B79002B1CD10F23FB1800221A7012E00F23BF
:40280000FB181B787A68D35C002B04D00E23FB1801221A700BE00F23FB181A780F23FB1801321A700F23FB181B78052BE7D90E23FB181B781800BD4604B080BD80B582B01B
:4028400000AF0200BB1D1A80C046BD4602B080BD80B582B000AF7860C046BD4602B080BD80B588B000AF02003960FB1D1A70CD4B1B78DBB201221343DAB2CA4B1A70FB1D0A
:402880001B78712B00D96BE19A00C74BD3181B689F461023FB1807221A701023FB1800225A701023FB18180003F0BEFF1023FB1807221A701023FB1801225A701023FB181A
:4028C000180003F0B1FF0023002B01D001F03EFFB64B1B681800FFF781FF031E11D0B34B1B68180001F042FFB04B1B6800211800FFF784FEAD4B1B6801211800FFF77EFE9B
:4029000036E0AB4B1B781A003F231A40A94B1B789901FC231B010B401A43A74B1B781903F8235B020B401A43A44B1B785904FE231B040B401343BB61BB69DAB2A04B1A705C
:40294000BB691B0ADAB29E4B5A70BB691B0CDAB29B4B9A709A4B180001F008FF984B00211800FFF74BFE964B01211800FFF746FE03200CF0CBFB0C23FB183F221A700C2322
:40298000FB1800225A700C23FB1818000CF0DCFB8C4B04221A70EAE03B681800FFF710FFE5E03B681A78884B1A70E0E03B687B617B691B78002B00D0D4E07B695B78002B3C
:4029C0000BD1824B0022DA80804B00229A807F4B7F4A1A607B697D4A5A60724B1B78DBB201229343DAB26F4B1A70BBE06D4B1B78DBB21A002023134000D0B5E0754B1B78B8
:402A0000102B02D1734B0522DA70734B1B78714A110018000CF0A6FC03001A000A23FB181A800A23FB181B88002B06D06B4B1B680A22BA181100362098475A4B1B78DBB269
:402A400001221343DAB2574B1A708DE03B681800FFF7FEFE8BE03B681800FFF7F9FE594B02221A7083E0574B04221A707FE0554B1B78022B00D179E04A4B1B78DBB21A0039
:402A80000123134000D171E0464B1B78DBB21A00042313400BD04B4B03221A70414B1B78DBB204229343DAB23E4B1A705EE03D4B1B78DBB21A00082313400BD0414B0422C6
:402AC0001A70384B1B78DBB208229343DAB2354B1A704BE03B4B1B78032B47D1394B04221A7043E03B681B881800FFF7A7FE3EE0394A3B681000190002231A0001F0E9FDB6
:402B0000314B00221A70FFF763FE30E0FFF74AFE2DE03B685B88172B05D81E23FB183A6852881A8003E01E23FB1818221A801E23FB1819883B681A8800231204120C1B0CE9
:402B40001B04134318000DF0C3FD10E03B681800FFF7E6FD0BE03B681800FFF71BFE06E0C04604E0C04602E0C04600E0C0460D4B1B78DBB21A00112313400ED0094B1B7850
:402B8000DBB201229343DAB2064B1A70134B1B68FA1D1278396810009847C046BD4608B080BDC0469F2300200C680100680C00207CF1FF0F7DF1FF0F7BF1FF0F78F1FF0F3F
:402BC000600C0020962300209823002070110020A80B0020200D00209C2300208C23002080B500AFC046BD4680BDC04680B500AF064B1B78002B04D100F00AF8034B0122CB
:402C00001A7000F03FF8C046BD4680BD7811002090B583B000AFFF2000F05EF8B82000F07FF8012000F096F8012000F0A3F8FC1D01F027F803002370104A104B1B78DBB24A
:402C400001210B43DBB21370FB1D1B78180001F01CF80B4A0A4B1B78DBB202218B43DBB21370074A064B1B78DBB204218B43DBB21370C046BD4603B090BDC04693000F408B
:402C800073000F4080B500AF054A054B1B78DBB201210B43DBB21370C046BD4680BDC04673000F4080B500AF054A054B1B78DBB201218B43DBB21370C046BD4680BDC04632
:402CC00073000F4080B500AF024B1B78DBB21800BD4680BD03000F4080B582B000AF0200FB1D1A70FB1D1B78002B07D0054AFB1D1B781370044AFB1D1B781370C046BD46AE
:402D000002B080BD43000F4003000F4080B500AF024B1B78DBB21800BD4680BD13000F4080B582B000AF0200FB1D1A70034AFB1D1B781370C046BD4602B080BD13000F4026
:402D400080B500AF024B1B78DBB21800BD4680BD23000F4080B582B000AF0200FB1D1A70034AFB1D1B781370C046BD4602B080BD23000F4080B582B000AF0200FB1D1A70DF
:402D8000034AFB1D1B781370C046BD4602B080BD33000F4080B500AF0C4B1B78DAB20C4B5A70FFF78FFF03001A00094B9A70094B1B78DAB2064BDA70FFF7A8FF03001A00DC
:402DC000034B1A71C046BD4680BDC04673000F40280D002043000F4080B500AF094A0A4B5B781370094A084BDB781370084A064B9B781370044B1B791800FFF791FFC046E7
:402E0000BD4680BD73000F40280D002043000F4003000F4080B500AF0A4B1B78DBB21A000123134003D0084B01221A7002E0064B00221A70FFF736FFFFF7ACFFC046BD46E6
:402E400080BDC04673000F40280D002080B500AFFFF7C2FF044B1B78002B01D0FFF712FFC046BD4680BDC046280D002080B500AF064B1B78002B04D100F00AF8034B0122AC
:402E80001A7000F03FF8C046BD4680BD7911002090B583B000AFFF2000F05EF8B82000F07FF8012000F08CF8012000F099F8FC1D00F0E7FE03002370104A104B1B78DBB216
:402EC00001210B43DBB21370FB1D1B78180000F0DCFE0B4A0A4B1B78DBB202218B43DBB21370074A064B1B78DBB204218B43DBB21370C046BD4603B090BDC04692000F4045
:402F000072000F4080B500AF054A054B1B78DBB201210B43DBB21370C046BD4680BDC04672000F4080B500AF054A054B1B78DBB201218B43DBB21370C046BD4680BDC046B1
:402F400072000F4080B500AF024B1B78DBB21800BD4680BD02000F4080B582B000AF0200FB1D1A70FB1D1B78002B07D0054AFB1D1B781370044AFB1D1B781370C046BD462D
:402F800002B080BD42000F4002000F4080B500AF024B1B78DBB21800BD4680BD12000F4080B582B000AF0200FB1D1A70034AFB1D1B781370C046BD4602B080BD12000F40A8
:402FC00080B582B000AF0200FB1D1A70034AFB1D1B781370C046BD4602B080BD22000F4080B582B000AF0200FB1D1A70034AFB1D1B781370C046BD4602B080BD32000F4085
:4030000080B500AF0C4B1B78DAB20C4B5A70FFF799FF03001A00094B9A70094B1B78DAB2064BDA70FFF7B2FF03001A00034B1A71C046BD4680BDC04672000F40300D0020F7
:4030400042000F4080B500AF094A0A4B5B781370094A084BDB781370084A064B9B781370044B1B791800FFF79BFFC046BD4680BD72000F40300D002042000F4002000F4057
:4030800080B500AF0A4B1B78DBB21A000123134003D0084B01221A7002E0064B00221A70FFF740FFFFF7ACFFC046BD4680BDC04672000F40300D002080B500AFFFF7C2FF99
:4030C000044B1B78002B01D0FFF71CFFC046BD4680BDC046300D002080B582B000AF0200FB1D1A70064B064A126806491140FA1D127852050A431A60C046BD4602B080BD0C
:4031000008030440FFFF1FFF80B582B000AF0200FB1D1A70064B064A126806491140FA1D127892040A431A60C046BD4602B080BD08020440FFFFE3FF80B582B000AF020073
:40314000FB1D1A70064B064A126806491140FA1D127892040A431A60C046BD4602B080BD08030440FFFFE3FF80B582B000AF094B1B68DAB2FB1D7F218A431A70054BFA1DDE
:4031800012781A60FB1D1B78DB09DBB21800BD4602B080BD1002044080B582B000AF786000F04EF87B68180000F00AF8032000F015F800F03BF8C046BD4602B080BDC0463D
:4031C00080B582B000AF7860034B7A689A64C046BD4602B080BDC0460000002090B585B000AF0200FB1D1A701623FB600B23FC1800F047FD030023700A4B0A4A12680A49B2
:403200001140FA1D1078FA68904002000A431A600B23FB181B78180000F037FDC046BD4605B090BD00E400E0FFFF3FFF80B500AF024B04221A60C046BD4680BD00E100E0B0
:4032400080B500AF024B04221A60C046BD4680BD80E100E080B500AF024B04221A60C046BD4680BD80E200E080B582B000AF7860C046074B1B68002BFBDB054B7A6812028D
:4032800004490A431A60C046BD4602B080BDC046000001404000008080B500AFC046054B1B68002BFBDB034B034A1A60C046BD4680BDC046000001404000004080B584B0B2
:4032C00000AF0200BB1D1A807B1D0A1C1A700C4B1B6807221340FB60BB1D1B881A02FB681A437B1D1B78DB00FF210B401343BB60034BBA681A60C046BD4604B080BDC0468F
:403300000003014080B582B000AF7860C046074B1B68002BFBDB054B7A68120204490A431A60C046BD4602B080BDC046000001404100008080B500AFC046054B1B68002B3D
:40334000FBDB034B034A1A60C046BD4680BDC046000001404100004080B584B000AF0200BB1D1A807B1D0A1C1A700C4B1B6807221340FB60BB1D1B881A02FB681A437B1DE0
:403380001B78DB00FF210B401343BB60034BBA681A60C046BD4604B080BDC0460403014090B585B000AF78600F23FC1800F069FC030023700A4B7A68D104E022920311406B
:4033C000074A1268074802400A431A600F23FB181B78180000F059FCC046BD4605B090BD00010B40FFFFC7FF90B58BB000AF78602723FC1800F045FC03002370194B1A6848
:403400000C23FB181A60184B1A680C23FB185A607B68033B154AD35C1A000C23FB189A60134B1A680C23FB18DA601C23FB18114A1A600C23FA181C23FB185A600E4B1C2283
:40344000BA181A600D4B0E4A1A600B4B1B682723FB181B78180000F018FCC046BD460BB090BDC04608010B4000010B40D469010030001040B6EA0000080010400400104030
:403480001700008080B584B000AF78600023FB60154B154A126801210A431A60134B144A1A60144B134A1268802109020A431A607B68002B12D01023FB600CE0012000F08B
:4034C00019F900F019F8031E02D00023FB6005E07B68013B7B607B68002BEFD1FB681800BD4604B080BDC04660F02E4078002E400220000010002E4080B582B000AF054B7C
:403500001B68012213407B607B681800BD4602B080BDC0460C002E4080B584B000AF02003960FB1D1A7080239B05FB60FB1D1B781F2B02D9002000F0ABF8FB1D1B781033E6
:403540009B00FA68D3181B68BB60FB1D1B7810339B00FA68D3183A681A60BB681800BD4604B080BD90B587B000AF0200FB1D1A70BB1D0A1C1A70BB1D1B78032B02D90020B9
:4035800000F086F8FB1D1B781F2B02D9002000F07FF8FB1D1B7803221340DB0006337B611323FC1800F06DFB03002370FB1D1B789B08DBB29B00144A944663441B68FB60C8
:4035C00003227B699A401300DA43FB681340FB60BB1D1A787B699A401300FA681343FB60FB1D1B789B08DBB29B00074A94466344FA681A601323FB181B78180000F045FB11
:40360000C046BD4607B090BD00E400E080B582B000AF0200FB1D1A70064BFA1D12781F210A40012191400A001A60C046BD4602B080BDC04600E100E080B582B000AF020035
:40364000FB1D1A70064BFA1D12781F210A40012191400A001A60C046BD4602B080BDC04680E100E080B582B000AF0200FB1D1A70064BFA1D12781F210A40012191400A0043
:403680001A60C046BD4602B080BDC04680E200E080B582B000AF0200FB1D1A7001BEC046BD4602B080BDC04680B582B000AF786009E00D4B1B68180000F0DAFA7B680B4A13
:4036C000944663447B607A6880231B029A42F0D8074B1B687A685343180000F0C9FAC046BD4602B080BDC046440D00200080FFFF3C0D002080B582B000AF0200BB1D1A8030
:40370000BB1D1B88044A12785343180000F0B0FAC046BD4602B080BD400D002090B583B000AFFC1D00F0ADFA03002370074B074A126804218A431A6030BFFB1D1B781800E1
:4037400000F0A3FAC046BD4603B090BD10ED00E090B583B000AFFC1D00F093FA03002370114B114A1268520052081A600F4B104A128892B21A600F4B0E4A126804210A4382
:403780001A600D4B1B683B600220FFF709FE30BF094B3A681A60FB1D1B78180000F075FAC046BD4603B090BD00000B400C000B4052F1FF0F10ED00E000010B4080B500AF70
:4037C0000F4B0F4A126801218A431A600C4B0C4A126802218A431A600A4B0A4A126830218A4310210A431A60064B064A126807218A4301210A431A60C046BD4680BDC04624
:4038000000F02E4000FF2E4080B500AF0F4B0F4A126802218A431A600D4B0D4A126807218A4302210A431A60094B094A126830218A4320210A431A60044B044A12680121BA
:403840000A431A60C046BD4680BDC04600F02E4000FF2E4080B500AFFFF7B0FF044B044A1268802109060A431A60C046BD4680BD00F02E4080B584B000AF78600C4B1B68E5
:4038800001221340FB607B68002B02D0012B03D005E0FFF793FF06E0FFF7B6FF03E00020FFF7F6FEC046FB681800BD4604B080BD00F02E4090B583B000AFFC1D00F0E1F990
:4038C00003002370074B074A1268C02109020A431A60FB1D1B78180000F0D7F9C046BD4603B090BD00010B4080B500AF054B1A68C0231B02134001D0012300E00023180071
:40390000BD4680BD00010B4090B583B000AFFC1D00F0B7F9030023700D4B0D4A12680D490A408021C9010A431A60094B084A126808490A40802109020A431A60FB1D1B78B1
:40394000180000F0A2F9C046BD4603B090BDC04600010B40FF3FFFFF80B582B000AF78607B68022B02D90020FFF792FE064B1A687B68DB000133DA4013000122134018000E
:40398000BD4602B080BDC04610020B4080B584B000AF786039607B68022B02D90020FFF777FE7B681800FFF7D7FF031E16D10D4B1B687A68D200032191400A00D2431340EE
:4039C000FB603B6803221A407B68DB009A401300FA681343FB60034BFA681A60C046BD4604B080BD0C020B4080B584B000AF786039607B68002B02D07B68012B01D10123A1
:403A000000E00023002B02D10020FFF741FE7B681800FFF7A1FF031E16D10D4B1B687A68D2000232012191400A00D2431340FB607B68DB0002333A689A401300FA681343DA
:403A4000FB60034BFA681A60C046BD4604B080BD0C020B4080B582B000AF7860144B144A11687A680A431A607B680122134005D0C0460020FFF770FF031EFAD07A68802378
:403A80005B00134005D0C0460120FFF765FF031EFAD07A6880235B02134005D0C0460220FFF75AFF031EFAD0C046BD4602B080BD10020B4080B582B000AF7860FFF714FF5F
:403AC000031E26D1154B154A12687968C9430A401A607B680122134005D0C0460020FFF73BFF031EFAD17A6880235B00134005D0C0460120FFF730FF031EFAD17A6880238F
:403B00005B02134005D0C0460220FFF725FF031EFAD1C046BD4602B080BDC04610020B4080B584B000AF786039607B68002B02D07B68012B01D1012300E00023002B02D108
:403B40000020FFF7A5FD174B1B689B0F9B0701D1C92300E05D231800FFF7CCFD124B1B68FB607B681B01114A9A401300DA43FB681340FB600C4B7A68120139689140FA6897
:403B80000A431A60074B1B689B0F9B0701D1432300E01F231800FFF7ADFDC046BD4604B080BDC0460C020B4008020B40FFFF000080B500AF034B1B68034A13401800BD46EF
:403BC00080BDC04610020B400404040090B585B000AF78600B23FC1800F053F803002370FFF782FE031E04D00123FB60FFF78CFE01E00023FB607B680D4A13407B600D4B7C
:403C00000C4A12680C4911407A680A431A60094B1B68FB68012B01D1FFF74CFE0B23FB181B78180000F031F8C046BD4605B090BD0404040010020B40FBFBFBFF80B582B01D
:403C400000AF7860084B084A11687A68074802400A431A60C046044B1B68044A1340FAD1C046BD4602B080BD10020B40080808000230800803D00138FDD1C046C046C0460E
:403C80007047EFF3108072B6704780F310887047F7B59C180023071C08268025019100922370237800982B432370BB689B6C9847019B984202D22378AB432370013E6D08B3
:403CC000002EEED12378F82B01D9F8232370F7BD70B5051C0E1C00242B789C4208D2AB68221C281C311C1B68FFF7D2FF0134F3E770BD38B5051C00242B789C4219D2AA68D6
:403D000013681B5DDB080F2B00D90F23D16BD268C95C1155AA68042B04D9936D906B211C012203E0936D906B211C002298470134E2E738BDF0B5041C002687B063789E4202
:403D400062D2A3685A6C925D0392002A01D1013203921A6C925D019201992278914251D29A689B69515C0F221140B2000492002205910499019D5A50019B5B000293039B80
:403D8000019A9B189D423DD2A768E388A0885843FB68595D00F076FB3B68595D00F0E8FA059B5843194B40005A2802D95B084008FAE7BA6904991B0C1B045350A3688208DF
:403DC0005B6B01215855A368C008DB69029F5A550F22A36849421B6A5855A3685B6A5A55A368986AC1530021D86AC153186B9B68C1535B19197801350A401A703B1C023382
:403E00000293BCE7013699E707B0F0BD0000FFFFF0B585684E002B6B925B9B191C8887B0141B0094AC6A1A80A45B6B6A0294EC6A5F5CA45B2B6A03946C6B7F00645C5B189D
:403E40000494AC680193645C1B780594009CE40FA4460F24251C6744009C3D40AC46E51764196C409C4203D2012B05D0013B00E00133FF273F2B00D89F00019D2B7065465F
:403E80000F2D29D0002D24D0BC4225D8059C029F24090094974200D9171C039D954200D2151C009A092A01D8141C01343A1C0A2C14D1EA1B934206D9049A92089A42924133
:403EC00052429B1A00E001338268D26953543A1C04E0151C644601E0151C00246746836824015B6A5F5483689F6ABA53DA6A9B6895530F225B181D782A401A7083689B68CE
:403F000059180B781C430C7007B0F0BD70B58068446BC069655C405CFF213F2801D88100C9B246B2FF24002E01DB4000C4B28D4201D9291C6C08012081439954049B9C5412
:403F400070BD000080B582B000AF78600A00BB1C1A80BB1C1A887B681A60C046BD4602B080BDC04680B582B000AF78600A00BB1C1A80BB1C1A887B681A60C046BD4602B0DD
:403F800080BDC04680B584B000AF494B1B78DBB21B02484A1278D2B21343FB60464B1B78DBB21B02454A1278D2B21343BB60BB68434A934207D1FB68072B04D1414BBB603A
:403FC0000423FB6009E0BA68D4231B019A4204D1FB68042B01D13B4BBB603B4BBA681A603A4BFA681A603A4B1B78DBB21B02394A1278D2B21343FB60FA6880239B019A4267
:4040000002D0FB68002B01D1334BFB60334BFA681A60334B1B78DBB21B02324A1278D2B21343FB60FB68304A934206D0FB682F4A934202D0FB68052B01D12D4BFB602D4B6A
:40404000FA681A602C4B1B681B097B602B4B1B68AA2B29D17B68012B26D9214B1B78DBB20E2B21D1264B1B78DBB29BB21B0299B2244B1B78DBB29AB2BB1C0A431A80224B92
:40408000BA1C12881A60214B1B78DBB29BB21B0299B21F4B1B78DBB29AB23B000A431A801C4B3A0012881A60C046BD4604B080BDD9F0FF0FD8F0FF0FDFF0FF0FDEF0FF0FC8
:4040C000580B0000580D00006C002E4074002E40DBF0FF0FDAF0FF0F0220000078002E40DDF0FF0FDCF0FF0F0F0F000005050000050F000080002E40EC0F00F0E00F00F0DA
:404100006DF2FF0F6CF2FF0F84002E406FF2FF0F6EF2FF0F94002E4080B582B000AF0200BB1D1A80BB1D1B881800FFF7E3FAC046BD4602B080BDC04680B582B000AF7860F9
:404140007B681800FFF7B0FAC046BD4602B080BD80B500AF00F0ECF8C046BD4680BDC04680B500AF00F0F0F8C046BD4680BDC04680B500AF00F0E8F8044B180000F0A2F8FB
:40418000022000F0ADF8C046BD4680BD6143000080B500AF034B180000F080F8C046BD4680BDC0466143000080B500AF0223FF331800BD4680BDC04680B582B000AF786035
:4041C0002B231800BD4602B080BDC04680B582B000AF78602B231800BD4602B080BDC04680B582B000AF78602B231800BD4602B080BDC04680B582B000AF78602B23180075
:40420000BD4602B080BDC04680B582B000AF78602B231800BD4602B080BDC04680B582B000AF78602B231800BD4602B080BDC04680B582B000AF78602B231800BD4602B0E5
:4042400080BDC04680B582B000AF78602B231800BD4602B080BDC04680B500AF2B231800BD4680BD80B582B000AF0200FB1D1A702B231800BD4602B080BDC04680B582B0A6
:4042800000AF786039602B231800BD4602B080BD80B500AFC046BD4680BDC04680B582B000AF786000F050F87B68180000F00AF8022000F015F800F03BF8C046BD4602B046
:4042C00080BDC04680B582B000AF7860034B7A681A67C046BD4602B080BDC0460000002090B585B000AF0200FB1D1A700623FB600B23FC18FFF7C5FC030023700B4B0B4A33
:404300001268C0218A431100FA1D1078FA68904002000A431A600B23FB181B781800FFF7B4FCC046BD4605B090BDC0460CE400E080B500AF034B802252011A60C046BD468D
:4043400080BDC04600E100E080B500AF034B802252011A60C046BD4680BDC04680E100E080B500AF12F034F8C046BD4680BDC046002243088B4274D303098B425FD3030A14
:404380008B4244D3030B8B4228D3030C8B420DD3FF22090212BA030C8B4202D31212090265D0030B8B4219D300E0090AC30B8B4201D3CB03C01A5241830B8B4201D38B0359
:4043C000C01A5241430B8B4201D34B03C01A5241030B8B4201D30B03C01A5241C30A8B4201D3CB02C01A5241830A8B4201D38B02C01A5241430A8B4201D34B02C01A524104
:40440000030A8B4201D30B02C01A5241CDD2C3098B4201D3CB01C01A524183098B4201D38B01C01A524143098B4201D34B01C01A524103098B4201D30B01C01A5241C30852
:404440008B4201D3CB00C01A524183088B4201D38B00C01A524143088B4201D34B00C01A5241411A00D20146524110467047FFE701B5002000F0F0F802BDC0460029F7D03E
:4044800076E7704703460B437FD4002243088B4274D303098B425FD3030A8B4244D3030B8B4228D3030C8B420DD3FF22090212BA030C8B4202D31212090265D0030B8B4207
:4044C00019D300E0090AC30B8B4201D3CB03C01A5241830B8B4201D38B03C01A5241430B8B4201D34B03C01A5241030B8B4201D30B03C01A5241C30A8B4201D3CB02C01A20
:404500005241830A8B4201D38B02C01A5241430A8B4201D34B02C01A5241030A8B4201D30B02C01A5241CDD2C3098B4201D3CB01C01A524183098B4201D38B01C01A524185
:4045400043098B4201D34B01C01A524103098B4201D30B01C01A5241C3088B4201D3CB00C01A524183088B4201D38B00C01A524143088B4201D34B00C01A5241411A00D2D6
:4045800001465241104670475DE0CA0F00D04942031000D34042534000229C4603098B422DD3030A8B4212D3FC22890112BA030A8B420CD3890192118B4208D389019211DD
:4045C0008B4204D389013AD0921100E08909C3098B4201D3CB01C01A524183098B4201D38B01C01A524143098B4201D34B01C01A524103098B4201D30B01C01A5241C3080B
:404600008B4201D3CB00C01A524183088B4201D38B00C01A5241D9D243088B4201D34B00C01A5241411A00D20146634652415B10104601D34042002B00D54942704763467C
:404640005B1000D3404201B5002000F005F802BD0029F8D016E770477047C046014B18687047C046041100200E4B70B500251E000D4CE41AA410A54204D0AB00F35898477C
:404680000135F8E712F0BEF9084B00251E00084CE41AA410A54204D0AB00F35898470135F8E770BD106A0100106A0100106A0100186A010030B50024A24208D0035D651C24
:4046C0000C5DA34201D0181B02E02C00F4E7002030BD002310B59A4203D0CC5CC4540133F9E710BD03008218934202D019700133FAE77047134A1088810703D08107890FB1
:40470000401A001D11791030484381B25088820703D08207920F801A001D800040180A494030098980B2CA0701D0503080B2890706D504495422091F09785143081880B2F5
:4047400070470000520D00208811002010B501F065FF10BD10B501F067FF10BD10B501F079FF10BD10B500F05BFA10BD10B50749044609780220002907D1204601F0C2FF8D
:40478000002802D120460AF0D3FD10BDF00E002070B504460120002C12D02368002B0FD0616800290CD0074D06222889208118462968FFF78EFF69686068097801700020F7
:4047C00070BD000088110020FFB585B0002768460E9D07734F481C460078002802D0082009B0F0BD10990F9801900095029105A807C800F007F90028F2D16946264603ABCE
:4048000084460873002C19D0002115E08A00B75A082F09D990198078002805D0083FB7521878401C187005E0002914D00027B75290198770491CC9B2A942E7D360460028DD
:40484000CED10F98002809D0109901F097FA002804D00120C4E701208446EFE701F0FAFE2D480021416081600599016021888180022D07D3A1798171A17AC171A189018185
:40488000218A418100211EE0481C19E082008B00A75AE65ABE46BE4211D26F463E80B4461E190296B678BE7001967646E6521719029EBB78B3706646A652019EBE70401CC4
:4048C000A842E3D3491CA942DED3134822460C3000906846037B0799069800F01BF90028B8D168460B4C007B60700B480C3001F0E1FE0028AED1084907480C3107F0ACFC97
:404900000028A7D107F0C6FC0028A3D10121217066E700004C0D00207C110020F8B5054636480F460078002802D002242046F8BD002F60D000243249002D16D02A89D00743
:404940000DD02868002808D003881B3BE12B04D24088FB2801D81B2801D2012409E0900707D56868002804D1F7E70020088108604860002CDAD122482E8906811F481B2126
:40498000801D01804180042101711C490020891C0870F00705D019480622801D2968FFF798FE1749B00703D56A68144812788270124D0E46AD1D281F0D60486001F0C8FEA7
:4049C000284601F0B7FE30890EF062FA30890DF053FC28880DF056FC30890EF0C3FB03461033FFF787FE1F21C018890140183880A91F88809AE7012498E700004C0D0020F0
:404A000088110020FFB58446384F1C460020BB883F78054602460646002F11D100290ED0029999420BD36146002908D0002C06D00A99002906D02E4B0B99994202D20120B8
:404A400004B0F0BD002144E0AB001F19BF78002F3BD0E35A002B38D07B43591889B22B0000F04AF8050410161C253100A7782388BC46FF27233BEB37BB4222D26346032B2A
:404A80001FD322E0A388002B1FD0302B19D31CE02389002B19D0282B13D316E0A289002A13D01346134F233BBB420AD20DE0268A002A0AD033460F4F233BBB4201D29642E3
:404AC00003D901200EE0002001E000280AD16D1CEDB2099B9D42B7D31C2463435B1802998B42ACD89642AAD8AAE700004C0D002079020000BAFF000030B47446641E2578F8
:404B0000641CAB4200D21D46635D5B00E31830BC18470000FFB583B0002469460C801F4606468C80002806D00598002803D004983043800701D0012466E0002FFBD0344990
:404B4000049809888842F6D3FFF722FBFFF708FB00F012FC002855D100F07AFD002851D12C49084601F03EF905042D0C4AD12A480499066081800021C18007810C98007AA6
:404B8000C00704D0684601F07EFD040007D10C98007A800703D501A801F07EFD0446BF1DFEB2002C20D13146059800F05DF804001AD10EF0E5FA040016D16A46108892886D
:404BC00008368518144AF1B29088D288AEB29319984207D3401B801A80B201F0F3FB050007D000E0FF25012400F05EFA002D04D008E0F8B200F01CF9F6E700F081FA074924
:404C00000120087000F0CAFB204607B0F0BD0000500D0020554D000094110020580D002010B503480078012801D101F06DFA10BD580D002070B5084B0446DA889E8800205C
:404C40005518B54206D81D68AA182260DA885118D98070BD032070BD94110020014800897047000094110020F0B587B007460D4600208900009006916846FFF7DBFF8446E1
:404C800000285DD1304800990160002117E02E4B88001A680629115406D22C4C0419667882185670628805E0C419203CA67A8218567022891B68C018491C4280C9B2A94237
:404CC000E5D300242DE0601CC2B2059025E01E4FA30039689600581840887118039604904E88B04217D938466F46FE80B6464F786E4677710297049F4F800168039F5E18B8
:404D0000767879184E700168764659184E800068029F18184770521CD2B2AA42D7D30598C4B2AC42CFD36046002809D168460699FFF780FF8446002802D10549009808603A
:404D4000604607B0F0BD00005C0D0020386A0100600D00207047000010B5002809D005494A68002A05D0011F08788000105801F0D7FA10BD5C0D002010B50446FFF76EFFE2
:404D8000C0B2801DA0420CD307484068002808D0A100405801F036FA002801D00470001D10BD002010BD00005C0D0020F8B516460D460446FFF752FFC0B2801DA04203D252
:404DC0000020C0430090F8BDB2B2E9B2684601F03FFA0099481C03D0024AA000526811500098F8BD5C0D0020F8B50746FFF736FF801DC6B20A49002005460C680DE0617895
:404E0000002907D06188B94202D32078FFF7B4FF002804D1241D6D1CEDB2B542EFD3F8BD5C0D002010B5002801D0FFF795FF10BD70B506460948002504680BE061780029C6
:404E400005D062882078121D0023FFF7AFFF241D6D1CEDB2B542F1D370BD00005C0D0020FFB581B00A9F16000C4620D000F0F2F8054604281BD0002F0CD03846FFF7B4FFB7
:404E800020492A0151184860002810D03A460499FFF71FFC1B4928010E504618778101980570200406D47D20C000444304E0FF2005B0F0BD6404640C00F0BAF8074604288E
:404EC00007D000F04FFAA0420BD800F04BFA201A03E0204600F0AAFA0020F06035720020E6E700F03FFA009000F0B6FA00980121001B009000F0ECF802493A015118009874
:404F0000C860E6E7A0110020F8B5060116483418217A042903D0E068002802D017E00020F8BD00F01FFA054600F096FA00F0A0F804280CD001010C480F18F86800214519E4
:404F400000F0C6F80020F860284600F06FFA6068054D002801D0FFF765FF042020720020A8516081E060DAE7A0110020FEB500266A46304601232549050169180D7A042D85
:404F800002D0C96800291BD000211154401CC0B20428F0D300246846005D002830D01B48210108184189476805680291002101604160042241810272C160002E02D015E08D
:404FC0001354E3E700F054F804280ED001010F4808180190C6680021304600F079F801980021C160304600F021FA0126002D07D038460299A847002F02D03846FFF712FFF5
:40500000641CE4B2042CC6D3FEBD0000A01100200EB5002005216A460090118150810348694600680EF011FF0EBD0000640D0020074A0020010189180B7A042B02D0C968C2
:40504000002903D0401CC0B20428F3D370470000A01100200549002002015218127A042A03D0401CC0B20428F6D37047A011002030B50A4B04200A4C00210A011219157A9F
:40508000042D06D0D268002A03D09A4201D808461346491CC9B20429EFD330BDFFFF0000A01100207047000030B50020074C05460423020111190B72A5504D60401C4D81D4
:4050C000C0B2CD600428F4D330BD0000A011002030B5094C00231A011219157A042D04D0D568002906D02D18D5605B1CDBB2042BF1D330BD2D1AF7E7A011002000207047C2
:405100001CB5002469460C70142001902346054A05480EF09FFE04480068401C00D1FF2420461CBD7D510000640D00203EB5124A0146FF2000230124126800290DD00129A1
:4051400014D0042908D104206946009308814B8110460EF07AFE80B23EBD6846009304814381694610460EF06BFEF4E768460093048143816946EBE7640D002070B5458931
:405180000468416800890300FFF7B6FC08280509091E22282628002005F01AFF1EE0022908D0C8B22A4621460CF0B2FF2046FFF739FE13E002202A4621460CF0A9FF2946EA
:4051C000204600F00DF809E000200EF03DFB05E02046FFF7CBFE01E0FFF75AF8002070BD014B0022DB681847680D002070B5448905680089022803D0032809D0FF2070BDBB
:405200002246094C0023A46829460120A04708E0FFF7A4FA241DA2B200232946022006F0CEFE002070BD0000680D002070470000024800214160018041807047680D002051
:4052400070B50C46002186B016460391012802D0022859D116E003A9012006F005FF01281BD1039D324621462846FFF732FA0095287801900220694608814E816846FFF7AD
:40528000B5FF41E0214D002B686809D0049004A9022006F0E9FE01281DD0022006B070BD002812D0298840182146FFF712FA28880024801980B228806988091D884206D101
:4052C0002C801348FFF792FF03E00320E6E788421AD96C6018E004986860E278A378110219430B4A698000231060E3565360032313815181A1788170E178C170617841701D
:4053000021780170042028800020C7E7680D0020E01100203EB515460C46022803D004280CD000203EBD0091019002206946088107484A8100680EF088FD07E00CF0E8FE19
:40534000044B0022DB6829462046984701203EBD640D0020680D0020014AD16090607047680D0020034801688068081A0A21484300097047EC11002010B5FEF7F9FE48225F
:4053800004490548FFF7A5F903490120C870002010BD0000546A0100F015002010B5FEF7D7FE10BD70B5134C2368002B08D0207B1149C20705D04008400020738868A0801D
:4053C00070BD88680B4AA18880B29268814203D90A4D691A091802E0814202D2411A5118A160A080A0689842EAD30EF04BFD00F013F870BDEC110020C0102E40FFFF000088
:4054000010B508461946FFF7A7FF10BD704710B5FFF780FF10BD000003480021016041608160C16070470000EC110020024610B5FF20002A0CD0FFF7EFFF064C0321207B68
:405440000843207310010A21FFF718F82060002010BD0000EC11002000B504480A21806848430209FFF7D8FF104600BDEC1100200248007B8007C00F70470000EC110020EC
:4054800010B54B490868002802DA4A4B01221A70022290430860484800694549C00B4031096A0246C907C90F0A4259D0012000F0EDFA3F480E216C30FEF754FD3E4820218C
:4054C0008430FEF74FFD3C4814219C30FEF74AFD3948FF21C131A430FEF744FD3648FF212F31B030FEF73EFD33483449BC30FEF739FD31483249AC30FEF734FD30492E4857
:40550000491CB430FEF72EFD2B482E49B830FEF729FD29482C49CC30FEF724FD26482B490830FEF71FFD24482949A830FEF71AFD214828498830FEF715FD1F4826498C3005
:40554000FEF710FD1C481921C9029030FEF70AFDFEF718FDFEF728FEC0B2022812D01FE000290BD0002101420AD0114801216030FEF7F8FC0120FEF7DFFD97E70121F2E7C1
:40558000FF2010BD15491648FEF7ECFC14481549001DFEF7E7FC124800210830FEF7E2FC54200449C043891C0870002010BD000000F02E40780D002000002E4032030000BD
:4055C0002F3F00003102000010520000EC160000FA12000031D000003AE300009956000080012E40F80F000070B50646581C80B245086D00002408E0304600F0C1F8105536
:40560000000A1119A41C4870A4B2AC42F4D3D80705D0D0182038D15CC47FD454C17770BD30B50A4C002100195B1E07E0541864782502545C2C430480891C89B29942F5DB50
:40564000994201D1515C018030BD000000102E4010B5FF2000F01AFA0F49FF2048700E481021801D41800121417001700A490020C91C4870FFF704FF04000AD100F02EF9A5
:4056800007210648FEF75EFC044807211830FEF759FC204610BD0000780D0020CC112E4070B5002405465B1E0AE0284600F068F8010A161971702D1D1055A41CADB2A4B208
:4056C0009C42F2DB9C4203D1284600F059F8105570BD000070B500210A4D5B1E0AE0541864782602545C344346193480001D891C80B289B29942F2DB994202D1515C4019D7
:40570000018070BD00102E40F0B50599091FCFB200217E1E0BE0541864782502545C2C43164D45192C80001D891C80B289B2B142F1DBFC0712D01C78515C24020F4A0C43CC
:4057400081180C809C785D78001D210280B2294384182180001D80B2D9780CE059781A7809021143054A84182180001DD9789B78090280B2194380180180F0BD00102E40C8
:40578000014940180088704700102E4010B50B490020487000F0A2F8002000F09DF9002000F08AF907210648FEF7CCFB044807211830FEF7C7FB002010BD00007B0D00209C
:4057C000CC112E4010B50C48007801280FD100F091FF00F0DDF8002804D10848016A490849000162054802213030FEF7BBFB02490020C91E087010BD7B0D002040F02E4072
:4058000010B50B46062812D006DC01280CD0032801D1FFF7BBFF10BD0A28FCD00B28FAD105480078107010BDFFF712FF10BD1146184600F06DF910BD7E0D0020F8B5244D5E
:40584000AC6A0127A007234E002816DA307806280ED1286A384328621F480069F903084381B21D481030FEF77DFB042000F00EF9174802212830FEF765FBE00718D000F009
:405880007BFF01280FD1002000F0C8FF062000F0FDF81049FF20C91E48707078002802D1686B384368630A4801212830FEF74AFBE0050BD53078042802D1052000F0E6F80B
:4058C0000348FF2101312830FEF73CFBF8BD000040F02E407B0D002000002E4010B503212348FEF73FFB0120FEF716FC20483038406A204C80076178800F890001431C486D
:405900000C38FEF72FFB6078002808D0401E022181401820FEF79CFEC000083800E0B82081B21548FEF71EFB1348032109021438FEF718FB10481149B830FEF713FB6121D0
:4059400089010F48FEF70EFB0D480321001FFEF709FB0C490C48FEF705FB0B480B496038FEF700FB084801218838FEF7FBFA10BD70F02E407E0D0020D8102E409089000019
:40598000041E2E40FF0F000058122E4020900000044800684007400F022801D0002070470120704700010B4000B5FFF7F1FF002805D009480168C908C900016000BD074828
:4059C000016A490849000162054801690122D2039143016100BD000000010B4040F02E4000002E400849087806280BD148780749002803D1486B400840004863C86A012223
:405A00001043C862704700007B0D002040F02E4001480078704700007B0D002002484078022800D001207047780D002000B50300FFF762F8080D050D0B070507090D0120CF
:405A400000BD032000BD042000BD022000BDFF2000BD0000074A9168D26889B2064B92B2994204D105498A4201D1012100E000210170704780002E4033D000003FE300009F
:405A800001494870704700007B0D002010B50446FEF766FB072C01D9FF2C01D102480470FEF756FB10BD00007B0D00200149487070470000780D002010B5064A012805D02C
:405AC0001921C9021046FEF74DFA10BD1D21C902F8E7000090002E4010B50A4A141D012808D009491046FEF73DFA08492046FEF739FA10BD04491046891CFEF733FA0349DB
:405B0000491DF3E788002E4031D000003AE3000070B50C460546FEF747FBC0B202280E49287804D0FF2810D04C280CD810E0FF2809D10A4AD0680004800F032801D00878C6
:405B400007E09069000A553803E00878207070BD4F382070087070BD7A0D002000002E40F0B50122002834D0002932D00424420600D00524792342065B06D21800D0641CB6
:405B8000034600221EE00C2516466E43124D00277519AF72104F002ABB51696007D0661EB24209D10D4E86197606760E05E05E06760E8027BE1B00E080269B198919521CF1
:405BC0002E81D2B2A242DED303480549006B002288611046F0BD00007814002079020000840D002018B50020694608700A48006900280ED0132149014018047E68460470A4
:405C00004F21C900054800F059F8A04201D0012018BD002018BD0000840D0020FC110020074900200C2242435218927A012A05D0401CC0B20628F5D3002070470120704715
:405C400078140020F8B50E000446154609D0194F19497868A04202D94018A04201D38D4201D90120F8BD31462046FEF723FD00281ED02A4631462046FEF72BFDE8B200211E
:405C80000C224A43D21913895568EE18A6420BD90126641B1B1B9672834209DA1469C01A044AC0B220329676491CC9B20629E7D30020F8BD7814002079020000034610B53F
:405CC0000020024604E09C5C2018521CC0B292B28A42F8D310BD000070B500F05FF8084C064A216907480D46FEF7F3FC05492846FFF736FFFFF776FF207070BD79020000F6
:405D0000840D0020FC110020002070470020054A002902D0012902D002E0906000E0D06000207047840D002070B5084C154608460549E26889182A46FEF7CBFCE0684019B6
:405D4000E06028B270BD0000FC110020840D00203EB50A226946FFF7E7FF044606480A2200686946FEF7A6FC002802D00020C0433EBD20463EBD0000880D0020002802D0BA
:405D8000044A914201D2FF20704703494A6108610020704779020000840D0020024800218160C16070470000840D002070B5074C15460548A26880182A46FFF743FFA0686F
:405DC0004019A06028B270BDFC110020840D002010B503490A220968FFF7E8FF10BD0000880D002010B50F4A002313600E4A13600E4B18600E4801600E49012008600E491A
:405E00000860000290600E490C4808600D4914300860FF381538506000F0BCF800F0CAF9002010BDB80D0020A00D0020CC0D0020D00D0020BC0D0020AC0D0020C01500201C
:405E4000B00D0020C40D0020014610B50020002910D0094B1A689C685118A14209D25868196080188A0704D08A07920F891A091D196010BD002010BDA00D0020F8B500241C
:405E8000164E671E321F3D463168136806E01422624310328A58521C1BD0641C9C42F6D36A1C14D02C461422544322460C3288500C214843FFF7C8FF3168002808510AD01C
:405EC00031680020103408517068401C70602846F8BD2546E4E73846F8BD0000B00D0020F3B50026F64381B000281BDB1E490968884217D80299002914D01B4F1422044666
:405F00003F1D54432546396810354859401C09D0FEF726F938682F1F4159C359994203DBFEF716F93046FEBD214608310091465801590C20704308180C220299FEF7C9FBF7
:405F40000948761C001D0068C159B14200D100260549009A091D865008684159491C4151FEF7F6F80020FEBDAC0D0020002803DB07490968884202D90020C04370470449A6
:405F80001422091D096850431030085870470000AC0D0020F0B500200D4A451E0346171F50600FE014260146714314680E1DA3510C46166808343351166808343551146898
:405FC000401C635039688842ECD30020F0BD0000B00D0020F3B50026F64381B0002841DB2349096888423DD8029900293AD0204F142204463F1D54432546396810354859E4
:40600000401C2FD0FEF7ACF83868415900292BD0211D009146580C21005971430F46C1190C220298FEF755FB11480021001D0068761C00590C34C0190160416081600C48F1
:40604000001D00680159B14200D100260849009A091D865008684159491E4151FEF778F80020FEBD3046FEBDFEF772F8FAE70000AC0D0020FEB504460D4600201E49089E66
:406080000860471E009001900290002C11D0486885420ED2002A0CD0002E0AD0642E08D808460C3001681C2068430C18207A002801D03846FEBD0120226020721846FFF729
:4060C000DDFE6060401C13D06681A6810A4827610C3067610179A94200D205710021684601810A462846029B00F040F82846FEBD00202072DDE70000B80D002038B50124C3
:40610000009400F039F838BDFEB50027164EFF433D4600240EE01C20316860430818017A002906D04068FFF721FF002801D0254603E0641C3079A042EDDA681C12D01C2114
:4061400030684D434419FEF70BF869466068FFF741FF0546FDF7FCFF002DD9D1216868468847D5E7FEBD0000C40D002038B50024009400F001F838BD1FB500220C49541E36
:406180000A60002811DB496888420ED808491C220C31096850430818406801A9FFF7A0FE401C02D0002004B010BD2046FBE70000B80D0020F0B50021114A4D1E17461171C3
:4061C0000C3F0B46BD6016E008461C2460431668041D355114680646235014680836A3551468361DA353044616680A34335318301468491C255078688142E5D30020F0BD96
:40620000C40D002038B500210091002811DB0F49097888420DDA0D4D04010C3529680859002807D0201D0818694600F06FF9002801D0002038BDFDF793FF28680F34015D76
:40624000491E0155FDF784FF009838BDD40D0020F7B582B0002502986E1E06602E48D21C024017462D4A2C4610460C380178106805E02301C358002B0FD0641CE4B28C4244
:40628000F7D3711C28D03401211D40180191039900F02AF900281FD101E02646F1E71F48016820460C300F521C480399026820460E30115419480399026820460F3011548F
:4062C0000398784300F0A0F8144900280968085102D00024009011E001251AE00F48016801980818009900F02CF9002801D0012502E00098C0190090641CE4B2039884423A
:40630000ECD3002D05D10298066004480179491C0171284605B0F0BDFCFF0000E00D0020F8B50D4600216A468C461180002839DB23490978884235DA214B04010C331968BF
:406340000A59002A2ED020460C300B5A801C0E5C184670438018954224D3854222D2002006E007465F43BF18AF4206D0401CC0B2B042F6D36046002814D0114E271DC81901
:406380000C366A46294600F006F900280AD168460088012808D030682946C01900F0D1F8002803D00120F8BD0020F8BDFDF7D8FE30680F34015D491C0155FDF7C9FEF3E7C1
:4063C000D40D0020F8B50F46002400F031F8002817D10C4900220B460C334A600EE021011D680E466A501D680C36AA53B61C1D680F31AA551D68641C6A54E4B2BC42EED387
:406400001A71F8BDD40D002000280BD0C01C074A81085068890053884118994203D89368516018187047002070470000D40D0020F8B5064600200F4D009029700C012146BA
:406440006846FEF7F7FB00280CD129460C3100980860301B001F84B221466846FEF7EAFB002801D0FF20F8BD6C800098A8600020F8BD0000D40D0020F8B5002827DB1949DF
:406480000978884223DA174C05010C342168485900281CD028460C30085A009028460E300E5C401C0E5420682F1DC01900F064F800280CD12068002445590EE00948294647
:4064C0000C300068C01900F03CF8002801D00120F8BD00982D18641CE4B2B442EED30020F8BD0000D40D002030B50D4604000BD0A800FFF789FF6060002805D000202570FD
:40650000C0436080002030BD012030BD70B50D46040005D0002D03D00220205E002801DA012070BDFDF71CFE0221615E60688900405828606088401E6080FDF709FE002079
:4065400070BD70B50D46040007D0002D05D002212078615E401E814201DB012070BDFDF7FFFD6088401C00B26080616880000D50FDF7EEFD002070BD10B5040009D0227800
:4065800000216068FEF7AEF80020C0436080002010BD012010BDF0B500231D46002802D00224045F0AE00120F0BD46689F00F6598E4201D1012503E05B1CDBB29C42F4DA1C
:4065C00015700020F0BD00000148007870470000E80D00207CB505460024FEF7BFF8A8796946087000A8062229460130FEF771F80021684604F0B2FF0C2806D0072806D0D7
:406600001F2806D0122806D006E0022404E0042402E0272400E0012420467CBD0148012141727047F816002010B502280BD0032802D0042809D102E000F07EF905E000F056
:4066400029FAFF2801D100F039FAFFF7E1F9FFF7EDF910BD10B500F061FAFFF7D9F9FFF7E5F910BD70B504460025FEF777F8002C06D0A079012803D8214602F0DFFD00E0BD
:406680000125284670BD01460120002902D05020088000207047000001460120002905D003485422007850430880002070470000EA0D002010B502460D49FE2048700324DF
:4066C00010460DF0E5FE002810D10DF089FE00280CD105F025FD002808D100F02FFC002804D105F0E1F9002800D10024204610BDE80D0020024800210182802101807047A7
:4067000000102E4070B50025044600280ED0A07901280BD8FEF722F8A0790028204602D003F068F903E003F03DF900E00125284670BD0000014610B50120002904D0062241
:406740000248FDF7C6FF002010BD0000F40D002001460120002903D0087802490870002070470000EA0D002010B5FFF751F9012801D1FFF753F910BD0148007A70470000EA
:40678000F816002038B504460120002C20D0617801291DD800290BD0FF25E535FDF7DEFF0C4828180088C0B22070072803D00EE0FF25CD35F2E70020694608706846FFF734
:4067C00049F969460878012801D108202070002038BD000000102E40014A002192681047E80D002008B500226B461A7026280CD0094A342852680BD0352805D1900703D5E6
:406800000021352005F068FD08BD19462620F9E7D007F9D03420F5E7E80D00200149087270470000F8160020F8B504460120002C26D06178012902D92278092A20D80029AA
:4068400005D0FF25E5352078092803D004E0FF25CD35F8E708202070FDF780FF2078114F114E08280DD00020FFF736F970780128207810D00D4969180880FE2070700020A6
:40688000F8BD0120FFF728F90720B8810549203188800120F2E7B8810248217820308180EBE70000C0112E40E80D002000102E4070B50E46050001D0002400E00C4C002C02
:4068C00011D0E28A500609D5D107C90F022003F02FF9E08A40218843E08204E0D107C90F012003F025F93146284602F003FE70BD58160020F8B50546002004460D4E00908C
:4069000013E022466946284601F0FEF80098002801D00DF09FFDA878214602F0CDFBA878214602F0BBFB641CE4B2308AA042E8D8F8BD000024170020F8B54E4CFFF768F83F
:40694000012847D14C480078002843D002F05AFD00283FD004F0A4FA00283BD0474E7078C00703D000F01CFD012833D0307E00287DD17078002500285BD0000706D5404810
:406980008089070B00F02EF9384370D13B484178684604F0CBF821793A4CA2788918C9B2814262D802F02EFD002860D0344860300789324E203602F06FFB6846008802F08A
:4069C00099FB02F035FC30490988884203D10120FFF75CF84BE02D49012008702748807B00281DD0002F1BD04036F07E002817D123486030008821494000C0314989814253
:406A00000AD26078002807D103F0C0F82049088A03221202104308822078002800D0257002F09EFB0120FFF72BF800F025FC174C15E002F0E7FC002819D0102402F0F8FB94
:406A4000214602F0E1FA02F055FB104C0120207002F086FB0020FFF713F800F00DFC20780128B4D1FEF7A0FF25700020F8BDFF20F8BD000030160020780D00203816002075
:406A8000A0102E400E0E0020200E0020FA0D0020E0112E4010B50848FF244078002809D102F0B0FC012805D1FEF78CFE0720FEF7EDFF0024204610BD3816002038B5FEF7EB
:406AC000A7FF012801D0002038BD02F09BFC00280AD0114C6078C00703D000F061FC012802D0207E002801D0FF2038BD617800290FD0684604F01AF8022806D968460088C0
:406B000002F0F8FA012002F035FB0320FEF7BEFFD9E70020F7E700003816002038B51E4CFEF776FF042813D0052811D0062812D003282AD007280AD1002069460870024681
:406B40000120FEF75DFEFEF763FF0128FBD138BD00F0B2FB38BD02F025FB00F0ADFB02F0A1FB8007800F0228F4D10C4841880029F0D05B21095D0029ECD101210170A07D16
:406B80000140022002F0D4FF38BD02F00FFB0120FEF77CFF38BD0000581600200E0E0020F8B50646002403F031F80546304603F047F803460A480021068A0DE001228A401A
:406BC0001046174628401F40002803D0002F01D1224394B2491CC9B28E42EFD82046F8BD2417002070B500252C460A4E03E0002C01D0002000E030460079002803D0204643
:406C0000FFF7CEFF0543641C2406240EEFD0284670BD0000581600201CB50020694648706846FFF7AFFD01AA69460A20FEF7E8FD6946042008561CBD70B50D4601F04AFBC7
:406C400004000BD02079002808D0FDF787FDE178A0782A4602F0D4FC002070BD022070BD0148007870470000301600204030C07E002800D00120704700B500F001F800BD2E
:406C8000902148430749084A40186030417F491CC9B24177D289914201D300214177C8B270470000381600202417002013B501F011FB04000BD001F0AEFE002807D021463A
:406CC00001AA0A310620FEF79BFD00201CBD02201CBD000010B50C4601F0FCFA00280AD001F099FE002806D0224604490A20FEF787FD002010BD022010BD000019160020FE
:406D0000F3B581B0074601460026029802F076FF0446002F01D0002500E0154D002D21D0284601F00DFB032C04D13946029802F0C1FF06463846029902F0B0F9032C06D0B5
:406D4000002C10D00121384601F000FC03E03146384603F0B5F9284602F08EF80221284602F0A4F8FEBD3846029902F097F9FEBD5816002010B5044600F066FA002804D101
:406D800003F068FE002801D00C2010BD2078611C02F038FDFF2801D01F2010BD02F07EFDFF280AD02178621C02F000F9044821780068026B601C904710BD072010BD00000A
:406DC000340E002010B503F045FE002801D00C2010BD02F0F9FC03480068C06A8047002010BD0000340E002070B50D46044610210DF070FA1021601806460DF06BFA334640
:406E000010221946204603F053FE102130460DF061FA02202870204604F07CFD70BD0000F8B504464078217802028006870FE0781143A67809050002090D0643084601F07E
:406E400049FA00210546F2B2002812D0002C10D0022F0ED0032F0CD0002A0AD00279092A07D0002A05D0134A5A23527E1B5C9A4207D82889002104F082FC20460DF0EAFA9D
:406E8000FF21002914D10C48224600682946436930469847C0B2FF280AD128464030817EF2B2491C8176FF232146284600F0E3F8F8BD0000F0150020500E002000207047CE
:406EC00010B5044603F0C6FD002801D00C2010BD2078611C02F096FCFF2808D002F0CEFB044821780068426B601C904710BD1F2010BD0000340E002010B500F06BF904F0F3
:406F0000D3FD002010BD10B5044600786178E2780843A17811430843217908436179084305D003F089FD002803D00C2010BD122010BD204602F05EFD002010BD10B5FDF733
:406F400033F902F085FE044803F0E8FE02F0A0FB012000F003F810BD00160020F1B586B003A8009005A8019028489F22817A114081726846FDF70CFC002845D169460989C1
:406F8000C90705D0224806990068C2686846904769460989890706D5002835D11D480068816A0698884700282ED11B4E0025757075737571F575357675767575B570F57031
:406FC000B5713746F5730120D03738731F20F880FF2130467972A0300176457600F0DCFA00242046069901F0C1FC002803D1641C2406240EF5D0FD720749BD72B573C03138
:407000000D704D704D600D7207B0F0BDF0150020500E0020340E00203816002070B505460E46084602F0F2FD0446304602F008FE0121A9400A46224001400A4301D001202B
:4070400070BD002070BD10B50446084602F0F8FD0121A140014201D0012010BD002010BD10B5FEF7D5FC032804D102F09FF80120FEF70CFD10BDFEB51C4616460F4605464F
:4070800001F0FAFEA878FFF7F7FD02460190334639460094284600F00DF8002808D1A8780199FFF705FCFF2C02D138460DF0D2F9FEBD0000FFB585B005460E980C46FF2811
:4070C00010D02B49C00009680A5840180179C0795278814201D9012601E09006860F6846038108E06078A1788006860FE0780002014368460181284601F098FC070007D03F
:4071000021462846079A00F093FC384609B0F0BD304600F041FD04AE0346039002AA29460096204600F0CDFB3C20405D002818D0284601F07BFC012813D0684600890096BD
:40714000C0B20190A878231DFF22079902F086F968460089039BC2B2A878079902F0C6FCD3E7684600890021C0B20091E9E700004C0E0020F8B5002600253046FFF710FDED
:4071800007001DD090201149704340186030447F12E0601CFDF772F9CCB23846E040C007C00F07D02146304601F06EFF21463046FFF7A6FD6D1CEDB20548018AA942E8D8C1
:4071C000761C3606360ED7D0F8BD0000381600202417002010B502F05BFA0020FFF7BEFE0DF0CEF9002010BDF8B5002400F0D2F80123012800D10124104F00203E462036A2
:407200000425082203E0002801D0002100E031460979002907D001290BD002290BD0114681402143CCB2401C0006000EEBD07C70F8BD1C43F7E72C43F5E70000381600205E
